00012345                              54321                              1007180714NOT50DDMMSSS                                                                                                                                                                                                                                 
500COBRA501007001                                                                                                                                                                                                                                                                                                               
501COBRA501007001                                    12123123000112---------------------------------------------RUA ABC, 123                                      CBA                                ABCDE                              ABCDE    EDCBA    MG       28082018111155555555555                                      
502TRANSPORTADORA ACME                               12123123000112RUA ABC, 123                                      CBA                                ABCDE                              ABCDE    EDCBA    MG       55555555555                        111                                                                    
503TRANSPORTADORA ACME                               12123123000112------------------------------RUA ABC, 123                                      CBA                                ABCDE                              ABCDE    EDCBA    MG       5555555555                         1234111 1C                               
5041234567890                                        12123123000112---------------RUA ABC, 123                                      CBA                                ABCDE                              ABCDE    EDCBA    MG       5555555555                         1234111 2C                                              
505ABC12345678928082018ABCDE          ABCDE          ABCDE  112C28082018ABCD1234  S1S1234MGSABCD1234  01111222333444555     1122233344555       ABCD1234            ABCD1234            ABCD1234            42808201816002808201816010112233441554466879                                   ABCD1234       I                     
506123,1200123,13000123,130000006,400000006,40000SS00000000013,20000000000013,20000000000013,20000000000013,20000000000013,20000000000013,20000000000013,20000000000013,20000000000013,20000000000013,20000000000013,20000000000013,20000000000013,20000000000013,20000000000013,200000000013,200000000013,200000000013,200     
5070006,2000006,30000006,400000006,4000000000000013,20000000000013,20000000000013,20000000000013,20000000000013,20000000000013,20000000000013,20000000000013,20000000000013,20000000000013,20000000000013,2003,20000000000013,200200000000013,2003,20000000000013,20000000000013,2003,20000000000013,20000000000013,200ABCABCDMG
508Marcasmarcas                                      1523                                              1546                                                                                                                                                                                                                     
50912123123000111ABCD                                              12311111111112123123000112BACD                                              12322222222212123123000113CABD                                              123333333333ABCD      123AB1123581321  12123123000112                                                
51100055500FARDOS         5556664             NOME                                              12560000000000000001236400123548MARCAMARCAS                                       5556                                              15                                                5449                                      
513RAZAO                                             12123123000112---------------RUA ABC                                           ABCD                               CBA                                123456789123456789MG       553333333                                                                                  
514RAZAO                                             12123123000112---------------RUA ABC                                           ABCD                               CBA                                123456789123456789MG       55112345678                        DOCA                                                    
515RAZAO                                             12123123000112---------------RUA ABC                                           ABCD                               CBA                                123456789123456789MG       112333333333                                                                               
5190000123456789000000123456789000000123456789000000012355                                                                                                                                                                                                                                                                      
